{
  "_format": "hh-sol-artifact-1",
  "contractName": "Proxy",
  "sourceName": "contracts/Proxy.sol",
  "abi": [
    {
      "inputs": [
        {
          "internalType": "address",
          "name": "_implementation",
          "type": "address"
        }
      ],
      "stateMutability": "nonpayable",
      "type": "constructor"
    },
    {
      "anonymous": false,
      "inputs": [
        {
          "indexed": true,
          "internalType": "uint256",
          "name": "value",
          "type": "uint256"
        },
        {
          "indexed": true,
          "internalType": "address",
          "name": "sender",
          "type": "address"
        },
        {
          "indexed": false,
          "internalType": "bytes",
          "name": "data",
          "type": "bytes"
        }
      ],
      "name": "Received",
      "type": "event"
    },
    {
      "stateMutability": "payable",
      "type": "fallback"
    },
    {
      "inputs": [],
      "name": "PROXY_getImplementation",
      "outputs": [
        {
          "internalType": "address",
          "name": "implementation",
          "type": "address"
        }
      ],
      "stateMutability": "view",
      "type": "function"
    },
    {
      "stateMutability": "payable",
      "type": "receive"
    }
  ],
  "bytecode": "0x608060405234801561001057600080fd5b5060405161029f38038061029f8339818101604052810190610032919061009e565b803055506100cb565b600080fd5b600073ffffffffffffffffffffffffffffffffffffffff82169050919050565b600061006b82610040565b9050919050565b61007b81610060565b811461008657600080fd5b50565b60008151905061009881610072565b92915050565b6000602082840312156100b4576100b361003b565b5b60006100c284828501610089565b91505092915050565b6101c5806100da6000396000f3fe6080604052600436106100225760003560e01c806390611127146100a857610076565b36610076573373ffffffffffffffffffffffffffffffffffffffff16347f606834f57405380c4fb88d1f4850326ad3885f014bab3b568dfbf7a041eef73860405161006c90610113565b60405180910390a3005b60006100806100d3565b90503660008037600080366000845af43d6000803e80600081146100a3573d6000f35b3d6000fd5b3480156100b457600080fd5b506100bd6100d3565b6040516100ca9190610174565b60405180910390f35b60003054905090565b600082825260208201905092915050565b50565b60006100fd6000836100dc565b9150610108826100ed565b600082019050919050565b6000602082019050818103600083015261012c816100f0565b9050919050565b600073ffffffffffffffffffffffffffffffffffffffff82169050919050565b600061015e82610133565b9050919050565b61016e81610153565b82525050565b60006020820190506101896000830184610165565b9291505056fea2646970667358221220bb5fd504ad5f375705288b7da3d7d1740cfc44f1f8c1af839177a5603158c7ea64736f6c63430008110033",
  "linkReferences": {},
  "deployedLinkReferences": {}
}