{
  "_format": "hh-sol-artifact-1",
  "contractName": "MainModule",
  "sourceName": "contracts/modules/MainModule.sol",
  "abi": [
    {
      "inputs": [
        {
          "internalType": "address",
          "name": "_factory",
          "type": "address"
        }
      ],
      "stateMutability": "nonpayable",
      "type": "constructor"
    },
    {
      "anonymous": false,
      "inputs": [
        {
          "indexed": false,
          "internalType": "address",
          "name": "_contract",
          "type": "address"
        }
      ],
      "name": "CreatedContract",
      "type": "event"
    },
    {
      "anonymous": false,
      "inputs": [
        {
          "indexed": false,
          "internalType": "address",
          "name": "newImplementation",
          "type": "address"
        }
      ],
      "name": "ImplementationUpdated",
      "type": "event"
    },
    {
      "anonymous": false,
      "inputs": [
        {
          "indexed": false,
          "internalType": "uint256",
          "name": "_space",
          "type": "uint256"
        },
        {
          "indexed": false,
          "internalType": "uint256",
          "name": "_newNonce",
          "type": "uint256"
        }
      ],
      "name": "NonceChange",
      "type": "event"
    },
    {
      "anonymous": true,
      "inputs": [
        {
          "indexed": false,
          "internalType": "bytes32",
          "name": "_tx",
          "type": "bytes32"
        }
      ],
      "name": "TxExecuted",
      "type": "event"
    },
    {
      "anonymous": false,
      "inputs": [
        {
          "indexed": false,
          "internalType": "bytes32",
          "name": "_tx",
          "type": "bytes32"
        },
        {
          "indexed": false,
          "internalType": "bytes",
          "name": "_reason",
          "type": "bytes"
        }
      ],
      "name": "TxFailed",
      "type": "event"
    },
    {
      "stateMutability": "payable",
      "type": "fallback"
    },
    {
      "inputs": [],
      "name": "FACTORY",
      "outputs": [
        {
          "internalType": "address",
          "name": "",
          "type": "address"
        }
      ],
      "stateMutability": "view",
      "type": "function"
    },
    {
      "inputs": [],
      "name": "INIT_CODE_HASH",
      "outputs": [
        {
          "internalType": "bytes32",
          "name": "",
          "type": "bytes32"
        }
      ],
      "stateMutability": "view",
      "type": "function"
    },
    {
      "inputs": [
        {
          "internalType": "bytes4",
          "name": "_signature",
          "type": "bytes4"
        },
        {
          "internalType": "address",
          "name": "_implementation",
          "type": "address"
        }
      ],
      "name": "addHook",
      "outputs": [],
      "stateMutability": "nonpayable",
      "type": "function"
    },
    {
      "inputs": [
        {
          "internalType": "bytes",
          "name": "_code",
          "type": "bytes"
        }
      ],
      "name": "createContract",
      "outputs": [
        {
          "internalType": "address",
          "name": "addr",
          "type": "address"
        }
      ],
      "stateMutability": "payable",
      "type": "function"
    },
    {
      "inputs": [
        {
          "components": [
            {
              "internalType": "bool",
              "name": "delegateCall",
              "type": "bool"
            },
            {
              "internalType": "bool",
              "name": "revertOnError",
              "type": "bool"
            },
            {
              "internalType": "uint256",
              "name": "gasLimit",
              "type": "uint256"
            },
            {
              "internalType": "address",
              "name": "target",
              "type": "address"
            },
            {
              "internalType": "uint256",
              "name": "value",
              "type": "uint256"
            },
            {
              "internalType": "bytes",
              "name": "data",
              "type": "bytes"
            }
          ],
          "internalType": "struct IModuleCalls.Transaction[]",
          "name": "_txs",
          "type": "tuple[]"
        },
        {
          "internalType": "uint256",
          "name": "_nonce",
          "type": "uint256"
        },
        {
          "internalType": "bytes",
          "name": "_signature",
          "type": "bytes"
        }
      ],
      "name": "execute",
      "outputs": [],
      "stateMutability": "nonpayable",
      "type": "function"
    },
    {
      "inputs": [],
      "name": "getImplementation",
      "outputs": [
        {
          "internalType": "address",
          "name": "_imp",
          "type": "address"
        }
      ],
      "stateMutability": "view",
      "type": "function"
    },
    {
      "inputs": [
        {
          "internalType": "bytes32",
          "name": "_hash",
          "type": "bytes32"
        },
        {
          "internalType": "bytes",
          "name": "_signatures",
          "type": "bytes"
        }
      ],
      "name": "isValidSignature",
      "outputs": [
        {
          "internalType": "bytes4",
          "name": "",
          "type": "bytes4"
        }
      ],
      "stateMutability": "view",
      "type": "function"
    },
    {
      "inputs": [
        {
          "internalType": "bytes",
          "name": "_data",
          "type": "bytes"
        },
        {
          "internalType": "bytes",
          "name": "_signatures",
          "type": "bytes"
        }
      ],
      "name": "isValidSignature",
      "outputs": [
        {
          "internalType": "bytes4",
          "name": "",
          "type": "bytes4"
        }
      ],
      "stateMutability": "view",
      "type": "function"
    },
    {
      "inputs": [],
      "name": "nonce",
      "outputs": [
        {
          "internalType": "uint256",
          "name": "",
          "type": "uint256"
        }
      ],
      "stateMutability": "view",
      "type": "function"
    },
    {
      "inputs": [
        {
          "internalType": "address",
          "name": "",
          "type": "address"
        },
        {
          "internalType": "address",
          "name": "",
          "type": "address"
        },
        {
          "internalType": "uint256[]",
          "name": "",
          "type": "uint256[]"
        },
        {
          "internalType": "uint256[]",
          "name": "",
          "type": "uint256[]"
        },
        {
          "internalType": "bytes",
          "name": "",
          "type": "bytes"
        }
      ],
      "name": "onERC1155BatchReceived",
      "outputs": [
        {
          "internalType": "bytes4",
          "name": "",
          "type": "bytes4"
        }
      ],
      "stateMutability": "nonpayable",
      "type": "function"
    },
    {
      "inputs": [
        {
          "internalType": "address",
          "name": "",
          "type": "address"
        },
        {
          "internalType": "address",
          "name": "",
          "type": "address"
        },
        {
          "internalType": "uint256",
          "name": "",
          "type": "uint256"
        },
        {
          "internalType": "uint256",
          "name": "",
          "type": "uint256"
        },
        {
          "internalType": "bytes",
          "name": "",
          "type": "bytes"
        }
      ],
      "name": "onERC1155Received",
      "outputs": [
        {
          "internalType": "bytes4",
          "name": "",
          "type": "bytes4"
        }
      ],
      "stateMutability": "nonpayable",
      "type": "function"
    },
    {
      "inputs": [
        {
          "internalType": "address",
          "name": "",
          "type": "address"
        },
        {
          "internalType": "address",
          "name": "",
          "type": "address"
        },
        {
          "internalType": "uint256",
          "name": "",
          "type": "uint256"
        },
        {
          "internalType": "bytes",
          "name": "",
          "type": "bytes"
        }
      ],
      "name": "onERC721Received",
      "outputs": [
        {
          "internalType": "bytes4",
          "name": "",
          "type": "bytes4"
        }
      ],
      "stateMutability": "nonpayable",
      "type": "function"
    },
    {
      "inputs": [
        {
          "internalType": "bytes4",
          "name": "_signature",
          "type": "bytes4"
        }
      ],
      "name": "readHook",
      "outputs": [
        {
          "internalType": "address",
          "name": "",
          "type": "address"
        }
      ],
      "stateMutability": "view",
      "type": "function"
    },
    {
      "inputs": [
        {
          "internalType": "uint256",
          "name": "_space",
          "type": "uint256"
        }
      ],
      "name": "readNonce",
      "outputs": [
        {
          "internalType": "uint256",
          "name": "",
          "type": "uint256"
        }
      ],
      "stateMutability": "view",
      "type": "function"
    },
    {
      "inputs": [
        {
          "internalType": "bytes4",
          "name": "_signature",
          "type": "bytes4"
        }
      ],
      "name": "removeHook",
      "outputs": [],
      "stateMutability": "nonpayable",
      "type": "function"
    },
    {
      "inputs": [
        {
          "components": [
            {
              "internalType": "bool",
              "name": "delegateCall",
              "type": "bool"
            },
            {
              "internalType": "bool",
              "name": "revertOnError",
              "type": "bool"
            },
            {
              "internalType": "uint256",
              "name": "gasLimit",
              "type": "uint256"
            },
            {
              "internalType": "address",
              "name": "target",
              "type": "address"
            },
            {
              "internalType": "uint256",
              "name": "value",
              "type": "uint256"
            },
            {
              "internalType": "bytes",
              "name": "data",
              "type": "bytes"
            }
          ],
          "internalType": "struct IModuleCalls.Transaction[]",
          "name": "_txs",
          "type": "tuple[]"
        }
      ],
      "name": "selfExecute",
      "outputs": [],
      "stateMutability": "nonpayable",
      "type": "function"
    },
    {
      "inputs": [
        {
          "internalType": "bytes4",
          "name": "_interfaceID",
          "type": "bytes4"
        }
      ],
      "name": "supportsInterface",
      "outputs": [
        {
          "internalType": "bool",
          "name": "",
          "type": "bool"
        }
      ],
      "stateMutability": "pure",
      "type": "function"
    },
    {
      "inputs": [
        {
          "internalType": "address",
          "name": "_implementation",
          "type": "address"
        }
      ],
      "name": "updateImplementation",
      "outputs": [],
      "stateMutability": "nonpayable",
      "type": "function"
    },
    {
      "stateMutability": "payable",
      "type": "receive"
    }
  ],
  "bytecode": "0x60c06040523480156200001157600080fd5b506040516200393638038062003936833981810160405281019062000037919062000146565b8060006040518060600160405280602881526020016200390e602891393073ffffffffffffffffffffffffffffffffffffffff166040516020018083805190602001908083835b60208310620000a357805182526020820191506020810190506020830392506200007e565b6001836020036101000a0380198251168184511680821785525050505050509050018281526020019250505060405160208183030381529060405280519060200120905080608081815250508173ffffffffffffffffffffffffffffffffffffffff1660a08173ffffffffffffffffffffffffffffffffffffffff1660601b81525050505050620001c0565b6000815190506200014081620001a6565b92915050565b6000602082840312156200015957600080fd5b600062000169848285016200012f565b91505092915050565b60006200017f8262000186565b9050919050565b600073ffffffffffffffffffffffffffffffffffffffff82169050919050565b620001b18162000172565b8114620001bd57600080fd5b50565b60805160a05160601c61371d620001f1600039806108a8528061208052508061088452806120a2525061371d6000f3fe60806040526004361061010d5760003560e01c806361c2926c11610095578063aaf10f4211610064578063aaf10f42146104a0578063affed0e0146104cb578063b93ea7ad146104f6578063bc197c811461051f578063f23a6e611461055c57610114565b806361c2926c146103e15780637a9a16281461040a5780638c3f55631461043357806390042baf1461047057610114565b80631a9b2337116100dc5780631a9b2337146102e857806320c13b0b14610325578063257671f5146103625780632dd310001461038d5780634fcf3eca146103b857610114565b806301ffc9a714610208578063025b22bc14610245578063150b7a021461026e5780631626ba7e146102ab57610114565b3661011457005b60006101436000357fffffffff0000000000000000000000000000000000000000000000000000000016610599565b9050600073ffffffffffffffffffffffffffffffffffffffff168173ffffffffffffffffffffffffffffffffffffffff1614610205576000808273ffffffffffffffffffffffffffffffffffffffff16600036604051808383808284378083019250505092505050600060405180830381855af49150503d80600081146101e6576040519150601f19603f3d011682016040523d82523d6000602084013e6101eb565b606091505b5091509150816101fd57805160208201fd5b805160208201f35b50005b34801561021457600080fd5b5061022f600480360381019061022a9190612a93565b6105f1565b60405161023c9190612f82565b60405180910390f35b34801561025157600080fd5b5061026c60048036038101906102679190612774565b610603565b005b34801561027a57600080fd5b5061029560048036038101906102909190612869565b610754565b6040516102a29190612fe8565b60405180910390f35b3480156102b757600080fd5b506102d260048036038101906102cd9190612a3b565b610769565b6040516102df9190612fe8565b60405180910390f35b3480156102f457600080fd5b5061030f600480360381019061030a9190612a93565b6107dd565b60405161031c9190612f67565b60405180910390f35b34801561033157600080fd5b5061034c60048036038101906103479190612af8565b6107ef565b6040516103599190612fe8565b60405180910390f35b34801561036e57600080fd5b50610377610882565b6040516103849190612f9d565b60405180910390f35b34801561039957600080fd5b506103a26108a6565b6040516103af9190612f67565b60405180910390f35b3480156103c457600080fd5b506103df60048036038101906103da9190612a93565b6108ca565b005b3480156103ed57600080fd5b506104086004803603810190610403919061297b565b6109ea565b005b34801561041657600080fd5b50610431600480360381019061042c91906129bc565b610aaf565b005b34801561043f57600080fd5b5061045a60048036038101906104559190612bae565b610b46565b6040516104679190613098565b60405180910390f35b61048a60048036038101906104859190612b6d565b610b82565b6040516104979190612f67565b60405180910390f35b3480156104ac57600080fd5b506104b5610c64565b6040516104c29190612f67565b60405180910390f35b3480156104d757600080fd5b506104e0610c73565b6040516104ed9190613098565b60405180910390f35b34801561050257600080fd5b5061051d60048036038101906105189190612abc565b610c84565b005b34801561052b57600080fd5b506105466004803603810190610541919061279d565b610da3565b6040516105539190612fe8565b60405180910390f35b34801561056857600080fd5b50610583600480360381019061057e91906128e9565b610dbb565b6040516105909190612fe8565b60405180910390f35b60006105e77fbe27a319efc8734e89e26ba4bc95f5c788584163b959f03fa04e2d7ab4b9a12060001b837bffffffffffffffffffffffffffffffffffffffffffffffffffffffff1916610dd1565b60001c9050919050565b60006105fc82610e10565b9050919050565b3073ffffffffffffffffffffffffffffffffffffffff163373ffffffffffffffffffffffffffffffffffffffff1614610687576040517f08c379a00000000000000000000000000000000000000000000000000000000081526004018080602001828103825260278152602001806136c16027913960400191505060405180910390fd5b6106a68173ffffffffffffffffffffffffffffffffffffffff16610e92565b6106fb576040517f08c379a00000000000000000000000000000000000000000000000000000000081526004018080602001828103825260398152602001806135a76039913960400191505060405180910390fd5b61070481610ea6565b7f310ba5f1d2ed074b51e2eccd052a47ae9ab7c6b800d1fca3db3999d6a592ca0381604051808273ffffffffffffffffffffffffffffffffffffffff16815260200191505060405180910390a150565b600063150b7a0260e01b905095945050505050565b60006107c161077785610eac565b84848080601f016020809104026020016040519081016040528093929190818152602001838380828437600081840152601f19601f82011690508083019250505050505050610f32565b156107d557631626ba7e60e01b90506107d6565b5b9392505050565b60006107e882610599565b9050919050565b600061086561081b86866040518083838082843780830192505050925050506040518091039020610eac565b84848080601f016020809104026020016040519081016040528093929190818152602001838380828437600081840152601f19601f82011690508083019250505050505050610f32565b15610879576320c13b0b60e01b905061087a565b5b949350505050565b7f000000000000000000000000000000000000000000000000000000000000000081565b7f000000000000000000000000000000000000000000000000000000000000000081565b3073ffffffffffffffffffffffffffffffffffffffff163373ffffffffffffffffffffffffffffffffffffffff161461094e576040517f08c379a00000000000000000000000000000000000000000000000000000000081526004018080602001828103825260278152602001806136c16027913960400191505060405180910390fd5b600073ffffffffffffffffffffffffffffffffffffffff1661096f82610599565b73ffffffffffffffffffffffffffffffffffffffff1614156109dc576040517f08c379a000000000000000000000000000000000000000000000000000000000815260040180806020018281038252602b815260200180613405602b913960400191505060405180910390fd5b6109e7816000611194565b50565b3073ffffffffffffffffffffffffffffffffffffffff163373ffffffffffffffffffffffffffffffffffffffff1614610a6e576040517f08c379a00000000000000000000000000000000000000000000000000000000081526004018080602001828103825260278152602001806136c16027913960400191505060405180910390fd5b6000610a9f82604051602001610a849190613063565b60405160208183030381529060405280519060200120610eac565b9050610aab81836111fe565b5050565b610ab8826113e5565b6000610aeb8385604051602001610ad09291906130b3565b60405160208183030381529060405280519060200120610eac565b9050610af78183610f32565b610b36576040517f08c379a0000000000000000000000000000000000000000000000000000000008152600401610b2d90613043565b60405180910390fd5b610b4081856111fe565b50505050565b6000610b787f8d0bf1fd623d628c741362c1289948e57b3e2905218c676d3e69abee36d6ae2e60001b8360001b610dd1565b60001c9050919050565b60003073ffffffffffffffffffffffffffffffffffffffff163373ffffffffffffffffffffffffffffffffffffffff1614610c08576040517f08c379a00000000000000000000000000000000000000000000000000000000081526004018080602001828103825260278152602001806136c16027913960400191505060405180910390fd5b81516020830134f090507fa506ad4e7f05eceba62a023c3219e5bd98a615f4fa87e2afb08a2da5cf62bf0c81604051808273ffffffffffffffffffffffffffffffffffffffff16815260200191505060405180910390a1919050565b6000610c6e611496565b905090565b6000610c7f6000610b46565b905090565b3073ffffffffffffffffffffffffffffffffffffffff163373ffffffffffffffffffffffffffffffffffffffff1614610d08576040517f08c379a00000000000000000000000000000000000000000000000000000000081526004018080602001828103825260278152602001806136c16027913960400191505060405180910390fd5b600073ffffffffffffffffffffffffffffffffffffffff16610d2983610599565b73ffffffffffffffffffffffffffffffffffffffff1614610d95576040517f08c379a000000000000000000000000000000000000000000000000000000000815260040180806020018281038252602c815260200180613519602c913960400191505060405180910390fd5b610d9f8282611194565b5050565b600063bc197c8160e01b905098975050505050505050565b600063f23a6e6160e01b90509695505050505050565b60008083836040516020018083815260200182815260200192505050604051602081830303815290604052805190602001209050805491505092915050565b60007f90042baf000000000000000000000000000000000000000000000000000000007bffffffffffffffffffffffffffffffffffffffffffffffffffffffff1916827bffffffffffffffffffffffffffffffffffffffffffffffffffffffff19161415610e815760019050610e8d565b610e8a8261149f565b90505b919050565b600080823b90506000811415915050919050565b80305550565b60008046905080308460405160200180807f19010000000000000000000000000000000000000000000000000000000000008152506002018481526020018373ffffffffffffffffffffffffffffffffffffffff1660601b8152601401828152602001935050505060405160208183030381529060405280519060200120915050919050565b6000806000610f4084611659565b9150915060008261ffff1660001b905060005b855183101561116f576000806000610f74868a6116cc90919063ffffffff16565b8260ff1692508160ff1691508098508194508295505050506001831415610fb557610fa8868a61175890919063ffffffff16565b8097508192505050611118565b6000831415610ff2576060610fd3878b6117ef90919063ffffffff16565b8098508192505050610fe58b826118d3565b9150828501945050611117565b60028314156110c55761100e868a61175890919063ffffffff16565b8097508192505050600061102b878b611ca590919063ffffffff16565b8161ffff1691508098508192505050606061105188838d611d2a9092919063ffffffff16565b80995081925050506110648c8483611e2d565b6110b9576040517f08c379a00000000000000000000000000000000000000000000000000000000081526004018080602001828103825260328152602001806134e76032913960400191505060405180910390fd5b83860195505050611116565b6040517f08c379a000000000000000000000000000000000000000000000000000000000815260040180806020018281038252602c8152602001806133d9602c913960400191505060405180910390fd5b5b5b848282604051602001808481526020018381526020018273ffffffffffffffffffffffffffffffffffffffff1681526020019350505050604051602081830303815290604052805190602001209450505050610f53565b8361ffff168110158015611188575061118782612060565b5b94505050505092915050565b6111fa7fbe27a319efc8734e89e26ba4bc95f5c788584163b959f03fa04e2d7ab4b9a12060001b837bffffffffffffffffffffffffffffffffffffffffffffffffffffffff19168373ffffffffffffffffffffffffffffffffffffffff1660001b612158565b5050565b60005b81518110156113e057600082828151811061121857fe5b602002602001015190506000606082604001515a101561126d576040517f08c379a000000000000000000000000000000000000000000000000000000000815260040161126490613023565b60405180910390fd5b82600001511561130b57826060015173ffffffffffffffffffffffffffffffffffffffff1660008460400151146112a85783604001516112aa565b5a5b8460a001516040516112bc9190612f50565b6000604051808303818686f4925050503d80600081146112f8576040519150601f19603f3d011682016040523d82523d6000602084013e6112fd565b606091505b5080925081935050506113a3565b826060015173ffffffffffffffffffffffffffffffffffffffff1683608001516000856040015114611341578460400151611343565b5a5b908560a001516040516113569190612f50565b600060405180830381858888f193505050503d8060008114611394576040519150601f19603f3d011682016040523d82523d6000602084013e611399565b606091505b5080925081935050505b81156113c457856040516113b79190612f9d565b60405180910390a06113d0565b6113cf838783612194565b5b5050508080600101915050611201565b505050565b6000806113f1836121e4565b91509150600061140083610b46565b9050808214611444576040517f08c379a000000000000000000000000000000000000000000000000000000000815260040161143b90613003565b60405180910390fd5b60006001830190506114568482612209565b7f1f180c27086c7a39ea2a7b25239d1ab92348f07ca7bb59d1438fcf527568f88184826040516114879291906130e3565b60405180910390a15050505050565b60003054905090565b60007fec6aba50000000000000000000000000000000000000000000000000000000007bffffffffffffffffffffffffffffffffffffffffffffffffffffffff1916827bffffffffffffffffffffffffffffffffffffffffffffffffffffffff1916148061156a57507f4e2312e0000000000000000000000000000000000000000000000000000000007bffffffffffffffffffffffffffffffffffffffffffffffffffffffff1916827bffffffffffffffffffffffffffffffffffffffffffffffffffffffff1916145b806115d257507f150b7a02000000000000000000000000000000000000000000000000000000007bffffffffffffffffffffffffffffffffffffffffffffffffffffffff1916827bffffffffffffffffffffffffffffffffffffffffffffffffffffffff1916145b8061163a57507fc0ee0b8a000000000000000000000000000000000000000000000000000000007bffffffffffffffffffffffffffffffffffffffffffffffffffffffff1916827bffffffffffffffffffffffffffffffffffffffffffffffffffffffff1916145b156116485760019050611654565b61165182612241565b90505b919050565b60008082602001518060f01c925060029150508251600211156116c7576040517f08c379a00000000000000000000000000000000000000000000000000000000081526004018080602001828103825260278152602001806134536027913960400191505060405180910390fd5b915091565b6000806000846020018401518060f81c935060ff8160f01c169250600285019150508381116116f757fe5b8451811115611751576040517f08c379a000000000000000000000000000000000000000000000000000000000815260040180806020018281038252602681526020018061361c6026913960400191505060405180910390fd5b9250925092565b6000808360200183015173ffffffffffffffffffffffffffffffffffffffff8160601c1692506014840191505082811161178e57fe5b83518111156117e8576040517f08c379a00000000000000000000000000000000000000000000000000000000081526004018080602001828103825260238152602001806134306023913960400191505060405180910390fd5b9250929050565b60606000604267ffffffffffffffff8111801561180b57600080fd5b506040519080825280601f01601f19166020018201604052801561183e5781602001600182028036833780820191505090505b5091508284016020018051602084015260208101516040840152602281015160428401526042840191505082811161187257fe5b83518111156118cc576040517f08c379a00000000000000000000000000000000000000000000000000000000081526004018080602001828103825260238152602001806135846023913960400191505060405180910390fd5b9250929050565b6000604282511461192f576040517f08c379a000000000000000000000000000000000000000000000000000000000815260040180806020018281038252603a81526020018061339f603a913960400191505060405180910390fd5b60008260018451038151811061194157fe5b602001015160f81c60f81b60f81c60ff16905060008360408151811061196357fe5b602001015160f81c60f81b60f81c905060006119896000866122c390919063ffffffff16565b905060006119a16020876122c390919063ffffffff16565b90507f7fffffffffffffffffffffffffffffff5d576e7357a4501ddfe92f46681b20a08160001c1115611a1f576040517f08c379a000000000000000000000000000000000000000000000000000000000815260040180806020018281038252603d815260200180613362603d913960400191505060405180910390fd5b601b8360ff1614158015611a375750601c8360ff1614155b15611a8d576040517f08c379a000000000000000000000000000000000000000000000000000000000815260040180806020018281038252603d81526020018061347a603d913960400191505060405180910390fd5b6001841415611b015760018784848460405160008152602001604052604051808581526020018460ff1681526020018381526020018281526020019450505050506020604051602081039080840390855afa158015611af0573d6000803e3d6000fd5b505050602060405103519450611c15565b6002841415611bc35760018760405160200180807f19457468657265756d205369676e6564204d6573736167653a0a333200000000815250601c018281526020019150506040516020818303038152906040528051906020012084848460405160008152602001604052604051808581526020018460ff1681526020018381526020018281526020019450505050506020604051602081039080840390855afa158015611bb2573d6000803e3d6000fd5b505050602060405103519450611c14565b6040517f08c379a000000000000000000000000000000000000000000000000000000000815260040180806020018281038252603c8152602001806135e0603c913960400191505060405180910390fd5b5b600073ffffffffffffffffffffffffffffffffffffffff168573ffffffffffffffffffffffffffffffffffffffff161415611c9b576040517f08c379a00000000000000000000000000000000000000000000000000000000081526004018080602001828103825260308152602001806134b76030913960400191505060405180910390fd5b5050505092915050565b6000808360200183015161ffff8160f01c16925060028401915050828111611cc957fe5b8351811115611d23576040517f08c379a00000000000000000000000000000000000000000000000000000000081526004018080602001828103825260228152602001806136636022913960400191505060405180910390fd5b9250929050565b606060008267ffffffffffffffff81118015611d4557600080fd5b506040519080825280601f01601f191660200182016040528015611d785781602001600182028036833780820191505090505b509150838501602001600060205b85811015611da4578183015181860152809150602081019050611d86565b856020018501805183850151838801528082528789019550505050505083811015611dcb57fe5b8451811115611e25576040517f08c379a00000000000000000000000000000000000000000000000000000000081526004018080602001828103825260218152602001806136426021913960400191505060405180910390fd5b935093915050565b60008082600184510381518110611e4057fe5b602001015160f81c60f81b60f81c60ff1690506001811480611e625750600281145b15611ea6578373ffffffffffffffffffffffffffffffffffffffff16611e8886856118d3565b73ffffffffffffffffffffffffffffffffffffffff16149150612058565b6003811415612006576000835190506001810384528473ffffffffffffffffffffffffffffffffffffffff16631626ba7e87866040518363ffffffff1660e01b81526004018083815260200180602001828103825283818151815260200191508051906020019080838360005b83811015611f2e578082015181840152602081019050611f13565b50505050905090810190601f168015611f5b5780820380516001836020036101000a031916815260200191505b50935050505060206040518083038186803b158015611f7957600080fd5b505afa158015611f8d573d6000803e3d6000fd5b505050506040513d6020811015611fa357600080fd5b81019080805190602001909291905050507bffffffffffffffffffffffffffffffffffffffffffffffffffffffff1916631626ba7e60e01b7bffffffffffffffffffffffffffffffffffffffffffffffffffffffff191614925080845250612057565b6040517f08c379a000000000000000000000000000000000000000000000000000000000815260040180806020018281038252603f815260200180613545603f913960400191505060405180910390fd5b5b509392505050565b60003073ffffffffffffffffffffffffffffffffffffffff1660ff60f81b7f0000000000000000000000000000000000000000000000000000000000000000847f000000000000000000000000000000000000000000000000000000000000000060405160200180857effffffffffffffffffffffffffffffffffffffffffffffffffffffffffffff191681526001018473ffffffffffffffffffffffffffffffffffffffff1660601b81526014018381526020018281526020019450505050506040516020818303038152906040528051906020012060001c73ffffffffffffffffffffffffffffffffffffffff16149050919050565b60008383604051602001808381526020018281526020019250505060405160208183030381529060405280519060200120905081815550505050565b8260200151156121a657805160208201fd5b7f3dbd1590ea96dd3253a91f24e64e3a502e1225d602a5731357bc12643070ccd782826040516121d7929190612fb8565b60405180910390a1505050565b600080600160606001901b0360001b8360001b1660001c9050606083901c9150915091565b61223d7f8d0bf1fd623d628c741362c1289948e57b3e2905218c676d3e69abee36d6ae2e60001b8360001b8360001b612158565b5050565b60007f025b22bc000000000000000000000000000000000000000000000000000000007bffffffffffffffffffffffffffffffffffffffffffffffffffffffff1916827bffffffffffffffffffffffffffffffffffffffffffffffffffffffff191614156122b257600190506122be565b6122bb82612337565b90505b919050565b60006020820183511015612322576040517f08c379a000000000000000000000000000000000000000000000000000000000815260040180806020018281038252603c815260200180613685603c913960400191505060405180910390fd5b60006020830190508084015191505092915050565b60007f389901c7000000000000000000000000000000000000000000000000000000007bffffffffffffffffffffffffffffffffffffffffffffffffffffffff1916827bffffffffffffffffffffffffffffffffffffffffffffffffffffffff191614156123a857600190506123b4565b6123b1826123b9565b90505b919050565b6000807bffffffffffffffffffffffffffffffffffffffffffffffffffffffff1916827bffffffffffffffffffffffffffffffffffffffffffffffffffffffff1916148061246457507f36e78175000000000000000000000000000000000000000000000000000000007bffffffffffffffffffffffffffffffffffffffffffffffffffffffff1916827bffffffffffffffffffffffffffffffffffffffffffffffffffffffff1916145b15612472576001905061247e565b61247b82612483565b90505b919050565b60006301ffc9a760e01b7bffffffffffffffffffffffffffffffffffffffffffffffffffffffff1916827bffffffffffffffffffffffffffffffffffffffffffffffffffffffff1916149050919050565b60006124e76124e28461313d565b61310c565b9050808382526020820190508260005b85811015612527578135850161250d88826126ab565b8452602084019350602083019250506001810190506124f7565b5050509392505050565b600061254461253f84613169565b61310c565b90508281526020810184848401111561255c57600080fd5b612567848285613299565b509392505050565b60008135905061257e816132ee565b92915050565b600082601f83011261259557600080fd5b81356125a58482602086016124d4565b91505092915050565b60008083601f8401126125c057600080fd5b8235905067ffffffffffffffff8111156125d957600080fd5b6020830191508360208202830111156125f157600080fd5b9250929050565b60008135905061260781613305565b92915050565b60008135905061261c8161331c565b92915050565b60008135905061263181613333565b92915050565b60008083601f84011261264957600080fd5b8235905067ffffffffffffffff81111561266257600080fd5b60208301915083600182028301111561267a57600080fd5b9250929050565b600082601f83011261269257600080fd5b81356126a2848260208601612531565b91505092915050565b600060c082840312156126bd57600080fd5b6126c760c061310c565b905060006126d7848285016125f8565b60008301525060206126eb848285016125f8565b60208301525060406126ff8482850161275f565b60408301525060606127138482850161256f565b60608301525060806127278482850161275f565b60808301525060a082013567ffffffffffffffff81111561274757600080fd5b61275384828501612681565b60a08301525092915050565b60008135905061276e8161334a565b92915050565b60006020828403121561278657600080fd5b60006127948482850161256f565b91505092915050565b60008060008060008060008060a0898b0312156127b957600080fd5b60006127c78b828c0161256f565b98505060206127d88b828c0161256f565b975050604089013567ffffffffffffffff8111156127f557600080fd5b6128018b828c016125ae565b9650965050606089013567ffffffffffffffff81111561282057600080fd5b61282c8b828c016125ae565b9450945050608089013567ffffffffffffffff81111561284b57600080fd5b6128578b828c01612637565b92509250509295985092959890939650565b60008060008060006080868803121561288157600080fd5b600061288f8882890161256f565b95505060206128a08882890161256f565b94505060406128b18882890161275f565b935050606086013567ffffffffffffffff8111156128ce57600080fd5b6128da88828901612637565b92509250509295509295909350565b60008060008060008060a0878903121561290257600080fd5b600061291089828a0161256f565b965050602061292189828a0161256f565b955050604061293289828a0161275f565b945050606061294389828a0161275f565b935050608087013567ffffffffffffffff81111561296057600080fd5b61296c89828a01612637565b92509250509295509295509295565b60006020828403121561298d57600080fd5b600082013567ffffffffffffffff8111156129a757600080fd5b6129b384828501612584565b91505092915050565b6000806000606084860312156129d157600080fd5b600084013567ffffffffffffffff8111156129eb57600080fd5b6129f786828701612584565b9350506020612a088682870161275f565b925050604084013567ffffffffffffffff811115612a2557600080fd5b612a3186828701612681565b9150509250925092565b600080600060408486031215612a5057600080fd5b6000612a5e8682870161260d565b935050602084013567ffffffffffffffff811115612a7b57600080fd5b612a8786828701612637565b92509250509250925092565b600060208284031215612aa557600080fd5b6000612ab384828501612622565b91505092915050565b60008060408385031215612acf57600080fd5b6000612add85828601612622565b9250506020612aee8582860161256f565b9150509250929050565b60008060008060408587031215612b0e57600080fd5b600085013567ffffffffffffffff811115612b2857600080fd5b612b3487828801612637565b9450945050602085013567ffffffffffffffff811115612b5357600080fd5b612b5f87828801612637565b925092505092959194509250565b600060208284031215612b7f57600080fd5b600082013567ffffffffffffffff811115612b9957600080fd5b612ba584828501612681565b91505092915050565b600060208284031215612bc057600080fd5b6000612bce8482850161275f565b91505092915050565b6000612be38383612ea9565b905092915050565b612bf48161321b565b82525050565b612c038161321b565b82525050565b6000612c14826131a9565b612c1e81856131cc565b935083602082028501612c3085613199565b8060005b85811015612c6c5784840389528151612c4d8582612bd7565b9450612c58836131bf565b925060208a01995050600181019050612c34565b50829750879550505050505092915050565b612c878161322d565b82525050565b612c968161322d565b82525050565b612ca581613239565b82525050565b612cb481613243565b82525050565b6000612cc5826131b4565b612ccf81856131dd565b9350612cdf8185602086016132a8565b612ce8816132dd565b840191505092915050565b6000612cfe826131b4565b612d0881856131ee565b9350612d188185602086016132a8565b612d21816132dd565b840191505092915050565b6000612d37826131b4565b612d4181856131ff565b9350612d518185602086016132a8565b80840191505092915050565b6000612d6a601f8361320a565b91507f4d61696e4d6f64756c65235f617574683a20494e56414c49445f4e4f4e4345006000830152602082019050919050565b6000612daa60248361320a565b91507f4d6f64756c6543616c6c73235f657865637574653a204e4f545f454e4f55474860008301527f5f474153000000000000000000000000000000000000000000000000000000006020830152604082019050919050565b6000612e1060268361320a565b91507f4d6f64756c6543616c6c7323657865637574653a20494e56414c49445f53494760008301527f4e415455524500000000000000000000000000000000000000000000000000006020830152604082019050919050565b6000612e7660058361320a565b91507f73656c663a0000000000000000000000000000000000000000000000000000006000830152602082019050919050565b600060c083016000830151612ec16000860182612c7e565b506020830151612ed46020860182612c7e565b506040830151612ee76040860182612f32565b506060830151612efa6060860182612beb565b506080830151612f0d6080860182612f32565b5060a083015184820360a0860152612f258282612cba565b9150508091505092915050565b612f3b8161328f565b82525050565b612f4a8161328f565b82525050565b6000612f5c8284612d2c565b915081905092915050565b6000602082019050612f7c6000830184612bfa565b92915050565b6000602082019050612f976000830184612c8d565b92915050565b6000602082019050612fb26000830184612c9c565b92915050565b6000604082019050612fcd6000830185612c9c565b8181036020830152612fdf8184612cf3565b90509392505050565b6000602082019050612ffd6000830184612cab565b92915050565b6000602082019050818103600083015261301c81612d5d565b9050919050565b6000602082019050818103600083015261303c81612d9d565b9050919050565b6000602082019050818103600083015261305c81612e03565b9050919050565b6000604082019050818103600083015261307c81612e69565b905081810360208301526130908184612c09565b905092915050565b60006020820190506130ad6000830184612f41565b92915050565b60006040820190506130c86000830185612f41565b81810360208301526130da8184612c09565b90509392505050565b60006040820190506130f86000830185612f41565b6131056020830184612f41565b9392505050565b6000604051905081810181811067ffffffffffffffff82111715613133576131326132db565b5b8060405250919050565b600067ffffffffffffffff821115613158576131576132db565b5b602082029050602081019050919050565b600067ffffffffffffffff821115613184576131836132db565b5b601f19601f8301169050602081019050919050565b6000819050602082019050919050565b600081519050919050565b600081519050919050565b6000602082019050919050565b600082825260208201905092915050565b600082825260208201905092915050565b600082825260208201905092915050565b600081905092915050565b600082825260208201905092915050565b60006132268261326f565b9050919050565b60008115159050919050565b6000819050919050565b60007fffffffff0000000000000000000000000000000000000000000000000000000082169050919050565b600073ffffffffffffffffffffffffffffffffffffffff82169050919050565b6000819050919050565b82818337600083830152505050565b60005b838110156132c65780820151818401526020810190506132ab565b838111156132d5576000848401525b50505050565bfe5b6000601f19601f8301169050919050565b6132f78161321b565b811461330257600080fd5b50565b61330e8161322d565b811461331957600080fd5b50565b61332581613239565b811461333057600080fd5b50565b61333c81613243565b811461334757600080fd5b50565b6133538161328f565b811461335e57600080fd5b5056fe5369676e617475726556616c696461746f72237265636f7665725369676e65723a20696e76616c6964207369676e6174757265202773272076616c75655369676e617475726556616c696461746f72237265636f7665725369676e65723a20696e76616c6964207369676e6174757265206c656e6774684d6f64756c6541757468235f7369676e617475726556616c69646174696f6e20494e56414c49445f464c41474d6f64756c65486f6f6b732372656d6f7665486f6f6b3a20484f4f4b5f4e4f545f524547495354455245444c696242797465732372656164416464726573733a204f55545f4f465f424f554e44534c696242797465732372656164466972737455696e7431363a204f55545f4f465f424f554e44535369676e617475726556616c696461746f72237265636f7665725369676e65723a20696e76616c6964207369676e6174757265202776272076616c75655369676e617475726556616c696461746f72237265636f7665725369676e65723a20494e56414c49445f5349474e45524d6f64756c6541757468235f7369676e617475726556616c69646174696f6e3a20494e56414c49445f5349474e41545552454d6f64756c65486f6f6b7323616464486f6f6b3a20484f4f4b5f414c52454144595f524547495354455245445369676e617475726556616c696461746f7223697356616c69645369676e61747572653a20554e535550504f525445445f5349474e41545552455f545950454c696242797465732372656164427974657336363a204f55545f4f465f424f554e44534d6f64756c6555706461746523757064617465496d706c656d656e746174696f6e3a20494e56414c49445f494d504c454d454e544154494f4e5369676e617475726556616c696461746f72237265636f7665725369676e65723a20554e535550504f525445445f5349474e41545552455f545950454c69624279746573237265616455696e743855696e74383a204f55545f4f465f424f554e44534c69624279746573237265616442797465733a204f55545f4f465f424f554e44534c69624279746573237265616455696e7431363a204f55545f4f465f424f554e44534c696242797465732372656164427974657333323a20475245415445525f4f525f455155414c5f544f5f33325f4c454e4754485f52455155495245444d6f64756c6553656c6641757468236f6e6c7953656c663a204e4f545f415554484f52495a4544a2646970667358221220bb98bf7cfe509040643c738ab08e61d268540f27eab0b016e0b8eeb9d9eeb4fd64736f6c63430007060033603a600e3d39601a805130553df3363d3d373d3d3d363d30545af43d82803e903d91601857fd5bf3",
  "linkReferences": {},
  "deployedLinkReferences": {}
}